:100000000C94CD030C94EA030C94EA030C940E298F
:100010000C94F32F0C94EA030C94EA030C94EA0377
:100020000C94EA030C94EA030C94EA030C94E51C88
:100030000C94EA030C94EA030C94EA030C94EA038C
:100040000C949B150C94EA030C94D4130C948F130A
:100050000C94EA030C94EA030C94EA030C94EA036C
:100060000C94EA030C94EA03A320AA20AD20B0204C
:10007000B520BF20CB20492149214921D520D720B7
:10008000E020E920F3204921492149214921492142
:10009000FD200B211921232126212F2138213D214B
:1000A000084AD73B3BCE016E84BCBFFDC12F3D6CDF
:1000B00074319ABD56833DDA3D00C77F11BED9E445
:1000C000BB4C3E916BAAAABE000000803F05A84C25
:1000D000CDB2D44EB93836A9020C50B991868808F1
:1000E0003CA6AAAA2ABE000000803F3E0D0A002CB2
:1000F00052583A002C4275663A002C002C57506F2B
:10010000733A002C002C4D506F733A003C436865E5
:10011000636B003C416C61726D003C486F6D650023
:100120003C486F6C64003C52756E003C51756575BF
:1001300065003C49646C65005D0D0A005B302E393A
:10014000672E32303134303832323A000D0A003DF9
:1001500000244E005D0D0A00204600205400204D72
:100160003800204D3900204D3500204D3400204D01
:100170003300204D3200204D3100204D300020470B
:1001800039340020473933002047393100204739BE
:1001900030002047323000204732310020473139CB
:1001A00000204731380020473137002047005B47A7
:1001B0003830005B4733005B4732005B4731005B00
:1001C0004730005D0D0A005B544C4F3A005D0D0A4C
:1001D000002C005B4739323A005D0D0A002C003AD2
:1001E000003330003238005B47005D0D0A002C0000
:1001F0005B5052423A00290D0A00206D617820744C
:10020000726176656C2C206D6D0020616363656C96
:100210002C206D6D2F7365635E3200206D61782038
:10022000726174652C206D6D2F6D696E002C2073CA
:100230007465702F6D6D007A0079007800202800B9
:100240003D0024002028686F6D696E672070756C12
:100250006C2D6F66662C206D6D290D0A00202868B4
:100260006F6D696E67206465626F756E63652C20C3
:100270006D736563290D0A2432373D002028686FAD
:100280006D696E67207365656B2C206D6D2F6D69D0
:100290006E290D0A2432363D002028686F6D696E84
:1002A0006720666565642C206D6D2F6D696E290D64
:1002B0000A2432353D00290D0A2432343D0020281D
:1002C000686F6D696E672064697220696E76657209
:1002D00074206D61736B3A002028686F6D696E67DA
:1002E000206379636C652C20626F6F6C290D0A2482
:1002F00032333D00202868617264206C696D697436
:10030000732C20626F6F6C290D0A2432323D00205D
:1003100028736F6674206C696D6974732C20626F2A
:100320006F6C290D0A2432313D0020286175746FED
:100330002073746172742C20626F6F6C290D0A2413
:1003400032303D0020287265706F727420696E63D0
:100350006865732C20626F6F6C290D0A2431343D5F
:1003600000202861726320746F6C6572616E636532
:100370002C206D6D290D0A2431333D0020286A752B
:100380006E6374696F6E20646576696174696F6EFF
:100390002C206D6D290D0A2431323D00290D0A24CF
:1003A00031313D002028737461747573207265705B
:1003B0006F7274206D61736B3A00202870726F62E7
:1003C000652070696E20696E766572742C20626F8C
:1003D0006F6C290D0A2431303D0020286C696D694D
:1003E000742070696E7320696E766572742C206259
:1003F0006F6F6C290D0A24363D00202873746570D8
:1004000020656E61626C6520696E766572742C2061
:10041000626F6F6C290D0A24353D00290D0A2434C2
:100420003D00202864697220706F727420696E76B6
:10043000657274206D61736B3A00290D0A24333D97
:100440000020287374657020706F727420696E7656
:10045000657274206D61736B3A0020287374657047
:100460002069646C652064656C61792C206D73650E
:1004700063290D0A24323D002028737465702070B2
:10048000756C73652C2075736563290D0A24313DE5
:100490000024303D002424202876696577204772A7
:1004A000626C2073657474696E6773290D0A242366
:1004B000202876696577202320706172616D6574EC
:1004C000657273290D0A24472028766965772070A4
:1004D0006172736572207374617465290D0A244911
:1004E000202876696577206275696C6420696E667C
:1004F0006F290D0A244E2028766965772073746170
:100500007274757020626C6F636B73290D0A2478A6
:100510003D76616C7565202873617665204772624F
:100520006C2073657474696E67290D0A244E783DDA
:100530006C696E65202873617665207374617274CE
:10054000757020626C6F636B290D0A244320286349
:100550006865636B2067636F6465206D6F646529F0
:100560000D0A245820286B696C6C20616C61726DD7
:10057000206C6F636B290D0A2448202872756E2049
:10058000686F6D696E67206379636C65290D0A7EFB
:1005900020286379636C65207374617274290D0A75
:1005A0002120286665656420686F6C64290D0A3F08
:1005B000202863757272656E74207374617475732C
:1005C000290D0A6374726C2D782028726573657426
:1005D000204772626C290D0A000D0A4772626C2076
:1005E000302E3967205B27242720666F72206865CC
:1005F0006C705D0D0A005D0D0A0044697361626CE8
:10060000656400456E61626C656400436175746980
:100610006F6E3A20556E6C6F636B656400272448DB
:10062000277C2724582720746F20756E6C6F636BAE
:1006300000526573657420746F20636F6E74696E09
:100640007565005B000D0A0050726F62652066617F
:10065000696C0041626F727420647572696E672004
:100660006379636C6500486172642F736F667420F0
:100670006C696D697400414C41524D3A20000D0A7D
:1006800000496E76616C69642067636F6465204918
:10069000443A00556E646566696E656420666565FA
:1006A00064207261746500556E737570706F72743A
:1006B000656420636F6D6D616E64004D6F64616C85
:1006C0002067726F75702076696F6C6174696F6EE8
:1006D000004C696E65206F766572666C6F770048B6
:1006E0006F6D696E67206E6F7420656E61626C65F8
:1006F0006400416C61726D206C6F636B004E6F74AF
:100700002069646C6500454550524F4D207265610B
:1007100064206661696C2E205573696E672064657C
:100720006661756C74730056616C7565203C20338E
:1007300020757365630053657474696E672064691E
:100740007361626C65640056616C7565203C203095
:1007500000496E76616C69642073746174656D65BF
:100760006E7400426164206E756D62657220666F02
:10077000726D617400457870656374656420636FA1
:100780006D6D616E64206C65747465720065727263
:100790006F723A20006F6B0D0A0011241FBECFEF5D
:1007A000D8E0DEBFCDBF11E0A0E0B1E0EEE0FCE6B6
:1007B00002C005900D92A030B107D9F716E0A0E075
:1007C000B1E001C01D92AF36B107E1F70E94EC0322
:1007D0000C9405360C9400001F930E945C130E9439
:1007E0004B220E94B1150E94E22F8EE1EFECF4E063
:1007F000DF011D928A95E9F781E08093CF04789418
:1008000080915E0684FF03C081E08093D00411E0F4
:100810000E94CF130E947F120E9493120E943B13EA
:100820000E9487280E94A22A0E948B270E94B51C42
:100830000E9405230E94BF081092CF041092D10499
:1008400080915E0681FF03C01093DF0402C0109206
:10085000DF040E94F714DCCF8091D10484FD1AC01C
:100860008FB7F8949091D10490619093D1048FBF89
:100870000E949B120E943E138091D004847351F019
:100880009FB7F8948091D10480628093D1049FBF78
:100890000E94891C089584E08093D0040E94AB28B4
:1008A00084E00E94B62883E00E94B6280E943A1491
:1008B0008091CF04882341F40E94BF081092D00495
:1008C0000E94891C0E9487280895EF92FF920F933F
:1008D0001F93CF93DF937B018C018091D0048230F2
:1008E00009F447C0C801B70120E030E040EA51E414
:1008F0000E94DE340E9472330E940933EB010E9491
:10090000D414C801B70120E030E04AE754E40E9463
:10091000DE347B018C0182E390E0C89FB001C99F67
:10092000700DD89F700D112480E090E00E94353347
:100930009B01AC01C801B7010E94BB310E94723318
:100940000E940933DC01CB010E94542800E911E028
:100950000EC00E943A148091CF04882351F484EF92
:1009600091E0F8013197F1F70197D9F72197209796
:1009700081F7DF91CF911F910F91FF90EF90089534
:100980009F92AF92BF92CF92DF92EF92FF920F931E
:100990001F93CF93DF93EC015A016B01922E80914C
:1009A0005E0685FF03C0CE010E94B7288091D00467
:1009B0008230D1F00E943A148091CF048823A1F4B0
:1009C0000E94FB22882319F00E942D14F3CFCE0140
:1009D000B601A501292D0E948B248091D004882383
:1009E00019F488E08093D004DF91CF911F910F918B
:1009F000FF90EF90DF90CF90BF90AF909F900895C1
:100A00006F927F928F929F92AF92BF92CF92DF921E
:100A1000EF92FF920F931F93CF93DF936C014A01E4
:100A20005B01722E8091D004823009F49DC00E9437
:100A3000D4146090DF040E94B02A882351F09FB73D
:100A4000F8948091D10480648093D1049FBF0E9468
:100A50003A148091CF04882309F086C0C601B501FD
:100A6000A401272D0F2EF0E0EF2EF0E0FF2EF0E88E
:100A70000F2FFFEB1F2FF02D0E94C00481E0809309
:100A8000E0049FB7F8948091D10482608093D104F0
:100A90009FBF0E943A148091CF04882309F064C05C
:100AA0008091D004882311F0883099F78091E00478
:100AB000813041F49FB7F8948091D1048064809391
:100AC000D1049FBF0E943A148091CF04882309F07B
:100AD0004BC00E94B51C0E948B270E94052381EE0B
:100AE000E82E84E0F82EC0E0D0E086010C0F1D1F38
:100AF000F70161917191819191917F010E9437334A
:100B0000FE01EF5DF94F20813181428153810E94C6
:100B10009C32F80160837183828393832496CC3066
:100B2000D10519F7C601B501A401272D0F2EF0E05C
:100B3000EF2EF0E0FF2EF0E80F2FFFEB1F2FF02D30
:100B40000E94C0048FB7F8949091D1049260909362
:100B5000D1048FBF0E94D4148091CF04882321F444
:100B60006092DF040E94052BDF91CF911F910F91BE
:100B7000FF90EF90DF90CF90BF90AF909F908F90BD
:100B80007F906F9008952F923F924F925F926F9255
:100B90007F928F929F92AF92BF92CF92DF92EF920D
:100BA000FF920F931F93DF93CF93CDB7DEB7EF97ED
:100BB0000FB6F894DEBF0FBECDBF9CAB8BAB7EAB48
:100BC0006DAB3A010FAB18AF29AF3AAFCBAEDCAE8D
:100BD000EDAEFEAEAFAE9924880C991C880C991C22
:100BE000880D991D9AAB89AB9A01280D391D38AB38
:100BF0002FA7D901AD90BD90CD90DC90C601B50175
:100C0000E9A9FAA920813181428153810E94BC3136
:100C10006DA37EA38FA398A765966FAD6597462EAB
:100C20005524440C551C440C551C2BA93CA9240DDF
:100C3000351D3EA72DA7C301840D951D9CA78BA72D
:100C4000DC01ED90FD900D911C91C801B701F901F7
:100C500020813181428153810E94BC3169A37AA3F2
:100C60008BA39CA3D601C501B0588D8F9E8FAF8FEB
:100C7000B8A3D801C701B058898F9A8FAB8FBC8FAA
:100C8000ADA9BEA98A0E9B1EF4016081718182818B
:100C900093812DA13EA14FA158A50E94BB313B01DC
:100CA0004C012DA93EA9420E531ED2016D917D919A
:100CB0008D919C9129A13AA14BA15CA10E94BB31CD
:100CC0005B016C016D8D7E8D8F8D98A1A6019501C4
:100CD0000E94DE347B018C01698D7A8D8B8D9C8D19
:100CE000A40193010E94DE349B01AC01C801B7014D
:100CF0000E94BB311B012C016D8D7E8D8F8D98A1C3
:100D0000A40193010E94DE347B018C01698D7A8DF0
:100D10008B8D9C8DA60195010E94DE349B01AC0158
:100D2000C801B7010E94BC319B01AC01C201B101F5
:100D30000E942F325B016C018091ED04823099F4A6
:100D4000C601B50120E030E040E050E00E94A3344D
:100D50008823ECF0C601B5012BED3FE049EC50E4EF
:100D60000E94BB3112C0C601B50120E030E040E076
:100D700050E00E949532181654F0C601B5012BEDD3
:100D80003FE049EC50E40E94BC315B016C01E09013
:100D90005A06F0905B0600915C0610915D066FA903
:100DA00078AD89AD9AAD9B01AC010E94BC31A80120
:100DB00097010E94BB319B01AC01C801B7010E94A1
:100DC000DE340E946B357B018C01C601B50120E049
:100DD00030E040E05FE30E94DE342FA938AD49AD3A
:100DE0005AAD0E94DE349F77A80197010E949C3281
:100DF0000E9472330E940933788F6F8B61157105E1
:100E000009F491C1BFADBB2381F080E090E00E9466
:100E100035339B01AC016BAD7CAD8DAD9EAD0E94B9
:100E2000DE346BAF7CAF8DAF9EAF2F89388DB901AB
:100E300080E090E00E9435337B018C01C601B50152
:100E4000A80197010E949C326B8B7C8B8D8B9E8BB3
:100E50006696EFAD6697F0E0EE0FFF1FEE0FFF1FF7
:100E60008BA99CA98E0F9F1F9AA789A7ADA9BEA980
:100E7000EA0FFB1F6081718182819381E9A5FAA548
:100E800020813181428153810E94BB31A8019701A9
:100E90000E949C326F87788B898B9A8B6B897C89B7
:100EA0008D899E899B01AC010E94DE349B01AC01BF
:100EB00060E070E080E090E40E94BB315B016C0177
:100EC0006B897C898D899E892BEA3AEA4AE25EE346
:100ED0000E94DE347B018C01C601B50120E030E0C8
:100EE00040E850E40E94BC319B01AC01C801B7014D
:100EF0000E94DE346B877C878D879E87C601B50193
:100F000020E030E040E05FE30E94DE3469837A83D2
:100F10008B839C8321E030E03E832D839924FBC0AA
:100F20003BE0391508F446C06D8D7E8D8F8D98A1FC
:100F30002B853C854D855E850E94DE347B018C01CE
:100F4000698D7A8D8B8D9C8D29813A814B815C8155
:100F50000E94DE349B01AC01C801B7010E94BC3184
:100F60007B018C016D8D7E8D8F8D98A129813A81B9
:100F70004B815C810E94DE345B016C01698D7A8D4E
:100F80008B8D9C8D2B853C854D855E850E94DE3446
:100F90009B01AC01C601B5010E94BB316D8F7E8FF4
:100FA0008F8F98A39394C701D801898F9A8FAB8FA5
:100FB000BC8F61C0AD81BE81BD0180E090E00E9428
:100FC00035332B893C894D895E890E94DE347B0153
:100FD0008C01C8010E9499326F83788789879A872C
:100FE000B701C8010E9461353B014C01EFA5F8A98A
:100FF000E080F1800281138117FB109517F910959D
:10100000ABA5BCA52D903D904D905C90C801B7015B
:101010002F81388549855A850E94DE345B016C0139
:10102000C201B101A40193010E94DE349B01AC0115
:10103000C601B5010E94BC316D8F7E8F8F8F98A342
:10104000C801B701A40193010E94DE347B018C0129
:10105000C201B1012F81388549855A850E94DE344D
:101060009B01AC01C801B7010E94BB31698F7A8F27
:101070008B8F9C8F99246DA17EA18FA198A52D8D1A
:101080003E8D4F8D58A10E94BC31E9A9FAA9608319
:1010900071838283938369A17AA18BA19CA1298DFD
:1010A0003A8D4B8D5C8D0E94BC31ADA5BEA56D9374
:1010B0007D938D939C931397E9A5FAA56081718127
:1010C000828193812F85388949895A890E94BC3150
:1010D000A9A5BAA56D937D938D939C9313978BA926
:1010E0009CA94BAD5CAD6DAD7EAD2FAD0F2EF0E08C
:1010F000EF2EF0E0FF2EF0E80F2FFFEB1F2FF02D6B
:101100000E94C0048091CF04882301F5ED81FE8107
:101110003196FE83ED832D813E818F89988D28172E
:10112000390708F4FDCE8DA99EA94BAD5CAD6DAD20
:101130007EAD2FAD0F2EF0E0EF2EF0E0FF2EF0E8A9
:101140000F2FFFEB1F2FF02D0E94C004EF960FB65C
:10115000F894DEBF0FBECDBFCF91DF911F910F91ED
:10116000FF90EF90DF90CF90BF90AF909F908F90C7
:101170007F906F905F904F903F902F900895609177
:10118000D3047091D4048091D5049091D6040E9428
:101190003733209121063091220640912306509149
:1011A00024060E949C326093000570930105809391
:1011B0000205909303056091D7047091D804809143
:1011C000D9049091DA040E9437332091250630919A
:1011D000260640912706509128060E949C32609373
:1011E00004057093050580930605909307056091AB
:1011F000DB047091DC048091DD049091DE040E9498
:1012000037332091290630912A0640912B065091C0
:101210002C060E949C326093080570930905809308
:101220000A0590930B0508952F923F924F925F927B
:101230006F927F928F929F92AF92BF92CF92DF92E6
:10124000EF92FF920F931F93DF93CF93CDB7DEB74B
:10125000A8970FB6F894DEBF0FBECDBF1C01E8E221
:10126000F5E089E3DF011D928A95E9F73196ADEE4D
:10127000B4E08AE00D9001928150E1F71982662472
:101280001CA27724AA24BB241F8E1E8EE1E04E2EC2
:10129000512C9924939472E0872E6AC2802F815436
:1012A0008A3118F081E00C9466129F5F9983C10126
:1012B000BE016F5F7F4FAE014E5F5F4F0E949C2764
:1012C000882319F482E00C946612CA80DB80EC80DB
:1012D000FD80C701B6010E94B8350E940933162F60
:1012E00070E0882777FD8095982F0E9437339B0107
:1012F000AC01C701B6010E94BB3120E030E048ECF0
:1013000052E40E94DE340E9441350E940933262FA8
:10131000073421F00D3409F052C10AC1163209F424
:1013200096C01732F0F4143170F4113108F0BAC0DD
:10133000143009F443C0143008F489C01A3011F095
:101340000C94551232C01C3181F11D3128F4163134
:1013500010F00C945512C8C01E3111F00C945512A7
:1013600024C0103509F47AC0113588F4153331F1F1
:10137000163340F41B3209F4C0C0113311F00C9441
:101380005512BBC01C3310F00C945512CAC01C354A
:1013900061F01D3528F41A3510F40C94551292C0E2
:1013A0001F3510F00C94551296C0222339F4BCA1BD
:1013B000BB2311F00C945312E1E0ECA31C31A9F013
:1013C0001D3128F4143051F01A3069F40AC0153375
:1013D00051F11C3561F11E3131F416C0909228058F
:1013E00002C08092280580E0A0C0222329F02A3084
:1013F00011F00C94551204C0F3E0F093280521C0BD
:1014000024E0209328051DC0222329F02A3011F062
:101410000C94551204C085E08093280512C096E014
:10142000909328050EC0A7E0A0932805DCCF2223C7
:1014300029F02A3011F00C94551205C0B8E0B09391
:10144000280580E0ADC0E9E0E0932805FACFFCA1D3
:10145000FF2311F00C94531282E08CA3123089F018
:10146000133028F4112351F01130D1F40AC0163290
:1014700059F0103591F0133099F403C010922905FA
:101480000FC0109329050CC0243111F00C94551293
:1014900094E09093290581E083C0A5E0A0932905FD
:1014A00081E043C0123139F0133149F0113129F490
:1014B00010922D0502C090922D0582E036C08092D8
:1014C0002D05FBCF1A3519F410922C0502C090920D
:1014D0002C0583E02AC01D3519F490922A0502C01C
:1014E00010922A0584E021C0143119F490922B0542
:1014F00002C010922B0585E018C0BCA1BB2309F0E7
:10150000D2C7113329F410922E05E3E0ECA307C0F3
:101510002A3009F0CAC790922E05F3E0FCA386E0BA
:101520003FC0165310932F0587E02223C9F1BFC790
:10153000662309F0BCC7163018F41330B0F408C0A5
:10154000183008F4B2C71A3000F11E3109F0ADC7E7
:10155000123041F01E3131F0112311F49092300518
:1015600088E01EC080923005FBCF143039F0153072
:1015700041F0133041F49092320505C0809232055B
:1015800002C01092320589E00BC0183019F01930F2
:1015900031F403C08092310502C0109231058AE017
:1015A000920102C0220F331F8A95E2F7C9018A21F6
:1015B0009B21892B09F07DC7A22AB32AD9C0003507
:1015C00009F46BC001359CF40A34E9F10B3434F4AE
:1015D000063421F1093409F068C72AC00C3409F433
:1015E0004AC00C34E4F10E3409F05FC748C004353A
:1015F00099F005353CF4023509F459C0033509F07A
:1016000054C75FC0093509F472C00A3509F47BC0BC
:10161000083509F04AC75FC029E080C0C092330591
:10162000D0923405E0923505F092360520E076C080
:10163000C0923705D0923805E0923905F0923A050C
:1016400021E0622A6BC0C0923B05D0923C05E0923B
:101650003D05F0923E0582E0682A22E05FC0C0921C
:101660003F05D0924005E0924105F092420594E09A
:10167000692A23E053C01093430524E04FC0C701FB
:10168000B6010E940433609344057093450580932E
:1016900046059093470525E041C0C0924805D09289
:1016A0004905E0924A05F0924B0526E037C0C0920A
:1016B0004C05D0924D05E0924E05F0924F0527E083
:1016C0002DC0C0925005D0925105E0925205F09283
:1016D000530528E023C0C0925505D0925605E092EC
:1016E0005705F0925805A1E07A2A2AE017C0C09267
:1016F0005905D0925A05E0925B05F0925C05B2E084
:101700007B2A2BE00BC0C0925D05D0925E05E09273
:101710005F05F0926005E4E07E2A2CE08201022E53
:1017200002C0000F111F0A94E2F78E8D9F8D802357
:101730009123892B11F089E1C9C681E693E002C0AB
:10174000959587952A95E2F780FF0CC0C701B601F1
:1017500020E030E040E050E00E949532882314F40D
:1017600084E0B4C68E8D9F8D802B912B9F8F8E8FA2
:101770009981F101E90FF11D0081002309F08ECD5F
:10178000772029F09CA1992311F4A2E0ACA3BE8D8F
:10179000B5FF0FC08091440590914505A091460585
:1017A000B091470580589649A849B04014F08BE1A4
:1017B0008DC680912A05813039F4FCA1F230B1F553
:1017C0002E8D20FD33C077C68091EE04882371F5FD
:1017D0008E8D80FF1BC080912B05813039F5609183
:1017E000330570913405809135059091360523E3DA
:1017F00033E34BEC51E40E94DE3460933305709385
:101800003405809335059093360510C08091FB0414
:101810009091FC04A091FD04B091FE0480933305E7
:1018200090933405A0933505B0933605AE8DBF8DEA
:10183000B0FD10C08091F7049091F804A091F904D4
:10184000B091FA048093500590935105A0935205EE
:10185000B093530580912805813041F4BE8DB6FFC9
:101860002CC6EE8DFF8DEF7BFF8FEE8F80912D05C7
:10187000882341F0813061F4F2E0FBA31AA221E059
:1018800029A30BC01BA281E08AA392E099A305C003
:10189000A1E0ABA3B2E0BAA319A280912B058130DD
:1018A00059F565E5E62E65E0F62E00E010E0C72C60
:1018B000DD24C601002E02C0959587950A94E2F7B3
:1018C00080FF11C0F701608171818281938123E3E0
:1018D00033E34BEC51E40E94DE34D7016D937D93EA
:1018E0008D939C9313970F5F1F4FE4E0F0E0EE0E93
:1018F000FF1E03301105E9F6FCA1F33049F4809195
:101900002E05813029F424E0721611F085E2DEC53F
:10191000DE011696ECE0F5E08CE001900D9281502E
:10192000E1F7A7FE12C090912F05973008F0C7C5C8
:101930008091F304891749F0892FBE016A5F7F4FB8
:101940000E942022882309F4BCC58091280582309A
:1019500021F0883009F0FDC09AC0772009F4B3C5A2
:101960008E8D9F8D80759070892B09F4A6C560912E
:1019700048057091490580914A0590914B050E9458
:10198000B8350E940933673008F099C520914305A6
:10199000243131F0223009F088C58E8D87FD85C550
:1019A000662319F0615068A303C090912F0598A396
:1019B0008E010E5E1F4F88A1B8010E94202288234D
:1019C00009F47FC5780155E5852E55E0952E40E058
:1019D000C42E45E0D42E00E010E0A72CBB24C501A6
:1019E000002E02C0959587950A94E2F780FF3BC0D0
:1019F00080914305843169F5D6016D917D918D917A
:101A00009C91139758962D913D914D915C915B97C8
:101A10000E94BB31F40120813181428153810E94B7
:101A2000BB31D7016D937D938D939C9313970230B7
:101A3000D1F420912405309125054091260550913F
:101A400027050E94BB31F7016083718382839383F2
:101A50000AC0F40180819181A281B381F701808362
:101A60009183A283B3830F5F1F4F84E090E0E80E61
:101A7000F91E880E991EC80ED91E0330110509F0F3
:101A8000AECFAE8DBF8DAF7ABF8FAE8F02C1772044
:101A900009F419C505E515E030E0C32E35E0D32E75
:101AA00026E0822E912C8C0E9D1EEE24FF24A72C66
:101AB000BB24C5010E2C02C0959587950A94E2F7C8
:101AC00080FF2CC0F6016081718182819381D401F5
:101AD0002D913D914D915C910E94BB31F801208187
:101AE0003181428153810E94BB31D8016D937D9336
:101AF0008D939C931397B2E0EB16D1F420912405BB
:101B00003091250540912605509127050E94BB3153
:101B1000F80160837183828393830AC0F601808D0C
:101B2000918DA28DB38DF80180839183A283B383BD
:101B30000894E11CF11C0C5F1F4F84E090E0C80E7C
:101B4000D91E880E991E93E0E916F10409F0B1CF71
:101B50009FC0ACA1A33009F47CC0772009F479C000
:101B600090E0C92E95E0D92E05E515E086E0A82E77
:101B7000B12CAC0EBD1EEE24FF24872C9924C40189
:101B80000E2C02C0959587950A94E2F780FD0BC054
:101B9000F60180819181A281B381F80180839183D4
:101BA000A283B38346C080912805873009F441C0E1
:101BB00080912C05882361F5D5016D917D918D91E2
:101BC0009C91F601208D318D428D538D0E94BC3148
:101BD000D8012D913D914D915C910E94BC31F8014D
:101BE0006083718382839383F2E0EF1611F5209175
:101BF00024053091250540912605509127050E9426
:101C0000BC31D8016D937D938D939C93139711C034
:101C1000F8016081718182819381D6012D913D917E
:101C20004D915C910E94BC31F80160837183828385
:101C300093830894E11CF11C84E090E0C80ED91E47
:101C40000C5F1F4FA80EB91E93E0E916F10409F0CE
:101C500096CF80912805853049F0873099F0833000
:101C6000B9F4772009F41CA286E004C0772009F4B7
:101C70001CA287E0BE016E5E7F4F0E942022882357
:101C800039F41FC480912905823010F08EE11EC402
:101C900018A210912905153049F4772009F45FC284
:101CA000ACA1A13009F45BC28FE110C4BCA1B23079
:101CB00009F055C21123E9F06091330570913405A4
:101CC000809135059091360520E030E040E050E00D
:101CD0000E949532882309F4EEC3143030F4123098
:101CE00060F4113009F03BC204C0143009F037C26F
:101CF00013C2772009F432C232C2772009F4E3C359
:101D0000FBA1EF2FF0E0F8A7EFA39AA1892F90E0B5
:101D10009EA38DA381E090E08C010DA002C0000F76
:101D2000111F0A94E2F70FA002C0880F991F0A94AE
:101D3000E2F7082B192B872D90E080239123892B24
:101D400011F480E2C3C3EFA1F8A5EE0FFF1FEE0F61
:101D5000FF1FDF01A351BB4FE85DFA4F65A576A5D4
:101D600087A590A953962D913D914D915C915697E1
:101D70000E94BB315B016C01EDA1FEA1EE0FFF1FC4
:101D8000EE0FFF1FDF01A351BB4FE85DFA4F65A5C2
:101D900076A587A590A953962D913D914D915C9183
:101DA00056970E94BB311B012C01AE8DA7FF02C1CB
:101DB00000E015E075E5E72E75E0F72EF80160818B
:101DC000718182819381D7012D913D914D915C91DB
:101DD0000E949532882359F40C5F1F4FE4E0F0E035
:101DE000EE0EFF1EF5E00C301F0741F76EC3809129
:101DF0002B058130B1F460914C0570914D058091B7
:101E00004E0590914F0523E333E34BEC51E40E94E0
:101E1000DE3460934C0570934D0580934E0590938E
:101E20004F05E0904C05F0904D0500914E05109146
:101E30004F05C801B70120E030E040E850E40E94BF
:101E4000DE34A80197010E94DE347B018C01C601BB
:101E5000B501A60195010E94DE349B01AC01C801C9
:101E6000B7010E94BB317B018C01C201B101A2010B
:101E700091010E94DE349B01AC01C801B7010E94B0
:101E8000BB317B018C0120E030E040E050E00E945B
:101E90009532882314F482E219C3C801B7010E9465
:101EA0006B357B018C01C601B501A20191010E9435
:101EB0005E289B01AC0117FB109517F91095C8011E
:101EC000B7010E949C327B018C01809129058330EF
:101ED00021F417FB109517F9109560904C05709040
:101EE0004D0580904E0590904F05C401B30120E050
:101EF00030E040E050E00E94953288237CF417FBEC
:101F0000109517F91095D401C301B05880934C0572
:101F100090934D05A0934E05B0934F058E8D9F8DE8
:101F20008F779F8F8E8FAFA1B8A5AA0FBB1FAA0F67
:101F3000BB1FA45DBA4FB8A7AFA3C201B101A801EE
:101F400097010E94DE349B01AC01C601B5010E94DD
:101F5000BB3120E030E040E05FE30E94DE34EFA1DF
:101F6000F8A563877487858796878DA19EA1880FC2
:101F7000991F880F991F845D9A4F9EA38DA3C60158
:101F8000B501A80197010E94DE349B01AC01C2019A
:101F9000B1010E94BC3120E030E040E05FE30E94EC
:101FA000DE34ADA1BEA11B966D937D938D939C9362
:101FB0001E97D5C0862C992408211921012B11F4D4
:101FC00083E284C2EE8DFF8DE17FFF8FEE8F8091E3
:101FD0002B05813041F547E3E42E45E0F42E00E087
:101FE00010E0C401002E02C0959587950A94E2F78F
:101FF00080FF10C0D7016D917D918D919C9123E35D
:1020000033E34BEC51E40E94DE34F70160837183CB
:10201000828393830F5F1F4F84E090E0E80EF91EE8
:1020200003301105F1F6EFA0F8A4EE0CFF1CEE0C46
:10203000FF1CACE2B5E0EA0EFB1EC601B501F701DC
:1020400023853485458556850E94BB315B016C0133
:102050000DA11EA1000F111F000F111F045D1A4FCB
:10206000C201B101D8011B962D913D914D915C911A
:102070001E970E94BB319B01AC01C601B5010E94B5
:102080005E285B016C01F701638574858585968503
:10209000D8011B962D913D914D915C911E970E9408
:1020A0005E283B014C0160934C0570934D05809375
:1020B0004E0590934F05C601B501A40193010E94FE
:1020C000BB317B018C01E89417F9C801B7012AE004
:1020D00037ED43EA5BE30E94A33418160CF03FC0CF
:1020E000C801B70120E030E040E05FE30E94A33484
:1020F00018160CF4EAC1C401B3012FE632E143E83B
:102100005AE30E94DE349B01AC01C801B7010E9472
:10211000A334181624F5D9C1772009F4D4C100E0FE
:1021200015E095E5E92E95E0F92EF80160817181C1
:1021300082819381D7012D913D914D915C910E94B7
:102140009532882361F40C5F1F4FE4E0F0E0EE0E5F
:10215000FF1EF5E00C301F0741F7B7C11CA28E8DA2
:102160009F8D8E7D9C7F2CA1222321F08E8D9F8DB3
:102170008E7D907E892B11F084E2A8C180912A0582
:102180008093EE048091330590913405A09135053C
:10219000B09136058093FB049093FC04A093FD045A
:1021A000B093FE048CA1823021F481E08093290554
:1021B00016C04091500550915105609152057091A3
:1021C00053054093F7045093F8046093F904709317
:1021D000FA048091F604882311F00E94EC12809199
:1021E00054058093FF04909132058091F60489177D
:1021F00069F09093F6044091F7045091F8046091CF
:10220000F9047091FA04892F0E94EC129091310523
:102210008091F504891729F09093F504892F0E9485
:10222000401380912805813051F4609148057091E8
:10223000490580914A0590914B050E946504809163
:102240002D058093F10480912B058093EF049CA1D0
:102250009330D9F480912E058093F204813049F4B3
:1022600080915D0590915E05A0915F05B09160053C
:1022700004C080E090E0A0E0B0E08093240590935B
:102280002505A0932605B093270590912F058091F1
:10229000F304891759F09093F304ACE0B5E0FE0124
:1022A00036968CE001900D928150E1F780912C05DB
:1022B0008093F00480912805853059F1863048F4E8
:1022C000833039F1843008F04AC0823009F060C0B0
:1022D0000AC0883009F44BC0893009F452C08630F6
:1022E00009F056C03EC08E010E5E1F4F88A1B80196
:1022F0000E9415228091F304A8A18A1709F048C012
:10230000ACE0B5E0F8018CE001900D928150E1F76E
:102310003FC0BCA1BB2359F085E595E040E050E00B
:1023200060E87FEB20E07A018B010E94C00482E12B
:10233000C82ED12CCC0EDD1EC60140E050E060E876
:102340007FEB20E07A018B010E94C004A0E0B5E0A1
:10235000F6018CE001900D928150E1F719C086E002
:1023600001C087E060E075E00E94152211C0A8E17D
:10237000B5E0E5E5F5E08CE001900D928150E1F7E4
:1023800007C08CE0E8E1F5E0DF011D928A95E9F7EE
:10239000809129058093ED04853009F46FC0BCA1BC
:1023A000B23009F06BC0843040F4823058F5882395
:1023B00041F0813009F059C00EC0843009F055C099
:1023C00046C085E595E040E050E060E87FEB20E026
:1023D0007A018B0114C04091FB045091FC04609180
:1023E000FD047091FE04E0905005F09051050091BD
:1023F00052051091530585E595E02091EE040E9469
:10240000C00433C000D000914C0510914D052091BF
:102410004E0530914F05C090FB04D090FC04E09035
:10242000FD04F090FE048AA1EDB7FEB7818399A167
:10243000928380E095E065E575E047E355E0A09084
:10244000EE048BA00E94C3050F900F900EC0409128
:10245000FB045091FC046091FD047091FE0485E53D
:1024600095E02091EE040E940005A0E0B5E0E5E5CE
:10247000F5E08CE001900D928150E1F780913005FC
:102480008093F404882311F10E94D4141092DF0485
:102490008091F404823019F40E942C0402C010923E
:1024A000F40480E013C088E111C084E10FC087E12B
:1024B0000DC085E10BC086E109C08CE107C08DE14C
:1024C00005C087E003C08AE101C081E2A8960FB68B
:1024D000F894DEBF0FBECDBFCF91DF911F910F915A
:1024E000FF90EF90DF90CF90BF90AF909F908F9034
:1024F0007F906F905F904F903F902F900895EDEEFA
:10250000F4E08BE3DF011D928A95E9F78091F304F3
:10251000BF01615E7F4F0E942022882319F487E06B
:102520000E943A2B0895239A259AE0EBF0E08081EF
:102530008F7780830895E0EBF0E080818F77808350
:102540000895EF92FF920F931F937B018C0183E814
:102550008093B0008091B100887F82608093B10049
:10256000C801B70120E030E040E050E00E94953221
:1025700088235CF40F2EF0E0EF2EF0E0FF2EF0E069
:102580000F2FF0E01F2FF02D14C0C801B70120E07D
:1025900030E04FE753E40E94A334181654F40F2E92
:1025A000F0E0EF2EF0E0FF2EFFE70F2FF3E41F2FF8
:1025B000F02DC801B70120E030E040E05FE30E9469
:1025C000BC310E9472330E9409336093B3001F91A3
:1025D0000F91FF90EF900895DF92EF92FF920F938B
:1025E0001F93D82E7A018B018091D0048230E9F1BB
:1025F0000E942D140E94D414DD2031F48091B0008B
:102600008F778093B00031C081E0D81611F42D98F7
:1026100001C02D9A83E88093B0008091B100887F3B
:1026200082608093B100C801B70120E030E04FE73D
:1026300053E40E94A334181654F40F2EF0E0EF2E4A
:10264000F0E0FF2EFFE70F2FF3E41F2FF02DC8015E
:10265000B70120E030E040E05FE30E94BC310E941F
:1026600072330E9409336093B3001F910F91FF9062
:10267000EF90DF9008953B9A43980895439808950A
:102680001F93182F8091D004823049F00E942D149E
:102690000E94D414123011F4439A01C043981F9140
:1026A00008959091010180910001891710F0891B14
:1026B00008958058891B0895E0ECF0E080818260E5
:1026C00080831092C50080E18093C400E1ECF0E0CB
:1026D0008081806180838081886080838081806840
:1026E00080830895282FE09102019E2F9F5F9034F0
:1026F00031F490E004C08091D10484FD0FC080913A
:1027000003019817C1F3F0E0EF59FA4F208390933B
:1027100002018091C10080628093C10008951F92E0
:102720000F920FB60F9211248F939F93EF93FF9305
:1027300080910301E82FF0E0EF59FA4F90819093D8
:10274000C600982F9F5F903409F490E090930301A6
:1027500080910201981729F48091C1008F7D8093A8
:10276000C100FF91EF919F918F910F900FBE0F903D
:102770001F9018959091010180910001891711F423
:102780008FEF0895E92FF0E0EF55FA4F8081E92FA0
:10279000EF5FE03809F4E0E0E093010108958091F3
:1027A00000018093010108951F920F920FB60F92BE
:1027B00011242F933F934F935F936F937F938F9346
:1027C0009F93AF93BF93EF93FF932091C600213265
:1027D000C9F0223218F42831F1F41AC02F3319F05D
:1027E0002E37C9F406C09FB7F8948091D104816058
:1027F00005C09FB7F8948091D10482608093D10482
:102800009FBF1AC09FB7F8948091D1048860F6CF1B
:102810000E942C0411C0E09100019E2F9F5F903810
:1028200009F490E080910101981731F0F0E0EF5544
:10283000FA4F208390930001FF91EF91BF91AF91E8
:102840009F918F917F916F915F914F913F912F91C8
:102850000F900FBE0F901F9018958091DF04882372
:1028600041F09FB7F8948091D10482608093D104A5
:102870009FBF0895CF93DF938091D104882309F4FB
:102880008AC0C82FD0E0CE0180769070892B39F1B4
:1028900081E08093D004C6FF17C0C5FF02C08FEF50
:1028A00001C08DEF0E94C12F81E00E94DB2A9FB7FB
:1028B000F8948091D1048F7E8093D1049FBF809142
:1028C000D10484FFFCCF03C08EEF0E94C12F9FB7BD
:1028D000F8948091D1048F798093D1049FBFC4FF75
:1028E00004C081E08093CF045CC0C0FF0AC00E9496
:1028F000A12B9FB7F8948091D1048E7F8093D1044F
:102900009FBFC3FF15C08091D004803149F480E29D
:102910008093D0040E94D3150E94F5151092DF0415
:102920009FB7F8948091D104877F8093D1049FBF93
:10293000C1FF1DC08091D004883089F480E180936C
:10294000D0040E94F5150E94731580915E0681FFE8
:1029500004C081E08093DF0402C01092DF049FB7BF
:10296000F8948091D1048D7F8093D1049FBFC2FFE2
:1029700012C00E94EA22892B21F088E08093D004C3
:1029800002C01092D0049FB7F8948091D1048B7F3D
:102990008093D1049FBF8091D004847311F00E9472
:1029A000F515DF91CF9108958091DF04882341F0E0
:1029B0009FB7F8948091D10482608093D1049FBF27
:1029C0008091D004803151F481E08093DF0406C00F
:1029D0000E943A148091CF04882341F40E94EA2295
:1029E000892BB1F78091D004803191F308950F9332
:1029F0001F930E94D62A8091D004813021F482E076
:102A00000E94DB2A1CC01092D00484E091E00E9456
:102A10002F3015C09A3011F09D3029F5E12FF0E0EC
:102A2000EC5FFE4F10820E943A148091CF048823FD
:102A300031F480910401882321F40E943A2B00E0B4
:102A400025C0843229F484E091E00E945B30F5CF08
:102A50008091D004813011F489E0EFCF84E091E0DF
:102A60000E941409EACF002321F0993209F500E011
:102A70001FC09132E8F09F32D9F0983211F401E092
:102A800017C01F3428F08BE00E943A2B10E010C0D2
:102A9000892F8156A12FB0E0E12FEF5F8A3120F41A
:102AA000AC5FBE4F905202C0AC5FBE4F9C931E2FD6
:102AB0000E94BA13982F8F3F09F0ACCF8091DF04AA
:102AC000882341F09FB7F8948091D104826080936D
:102AD000D1049FBF0E943A148091CF04882341F310
:102AE0001F910F91089580915E0682FF02C0289A7F
:102AF00001C028988091D0048471E1F0809108028F
:102B00008093F001809107028093EF01809151063C
:102B100090E0A0E0B0E00297A109B109880F991FE9
:102B2000AA1FBB1F81958093EE0180916F00826088
:102B300080936F0008951F920F920FB60F92112489
:102B40008F939F939BB1809107028C71937E892B09
:102B50008BB915BC9F918F910F900FBE0F901F9056
:102B600018958AB18C618AB9209A8AB1806E8AB927
:102B7000E1E8F0E080818F7E8083808188608083BF
:102B8000E0E8F0E080818C7F808380818F7080839B
:102B9000EEE6F0E08081887F808314BC15BC8081E4
:102BA000816080830895CF93DF93C0910A02D09112
:102BB0000B022097B9F081E080930F02209125024B
:102BC000309126024091270250912802CA01B90192
:102BD0000E94DE34698B7A8B8B8B9C8B10920B025C
:102BE00010920A02DF91CF9108952F923F924F9257
:102BF0005F926F927F928F929F92AF92BF92CF928D
:102C0000DF92EF92FF920F931F93DF93CF93CDB795
:102C1000DEB7E9970FB6F894DEBF0FBECDBF1DC675
:102C200080910A0290910B02892B09F088C20E94C0
:102C3000EA2290930B0280930A02892B09F414C6AE
:102C400080910F02882319F010920F02D4C0809156
:102C50000E028F5F80930E02853011F410920E02E7
:102C6000E0910E0225E1E29FF0011124EC5AFE4FA3
:102C7000F0930D02E0930C0200910A0210910B02F6
:102C8000D8018C91848311962D913D914D915C9149
:102C9000149793E0220F331F441F551F9A95D1F7C5
:102CA000258336834783508715962D913D914D910D
:102CB0005C91189783E0220F331F441F551F8A959C
:102CC000D1F7218732874387548719962D913D91FB
:102CD0004D915C911C9773E0220F331F441F551FC9
:102CE0007A95D1F7258736874787508B1D962D918A
:102CF0003D914D915C91509763E0220F331F441F2B
:102D0000551F6A95D1F7218B328B438B548B999643
:102D10002D913D914D915C919C972083318342830D
:102D200053831D966D917D918D919C9150970E943A
:102D300035336093100270931102809312029093C6
:102D40001302F80125A136A147A150A50E949C328B
:102D50009B01AC01609314027093150280931602DC
:102D60009093170260E070E080EA9FE30E949C323B
:102D7000609318027093190280931A0290931B02B9
:102D800080E090E0A0E0B0E080931C0290931D02F0
:102D9000A0931E02B0931F028091D0048032E1F410
:102DA00020912D0230912E0240912F02509130023D
:102DB0002093250230932602409327025093280245
:102DC000CA01B9010E94DE34D80151966D937D93FA
:102DD0008D939C9354970FC0F80161897289838900
:102DE00094890E946B35609325027093260280932C
:102DF00027029093280280E090E0A0E0B0E080936A
:102E0000210290932202A0932302B0932402009106
:102E10000A0210910B02D80191968D919D910D900F
:102E2000BC91A02D88AB99ABAAABBBAB60E070E0C6
:102E300080E09FE328A939A94AA95BA90E949C3296
:102E40001B012C018091D004803209F056C0B2E001
:102E5000B0932002F801A5A0B6A0C7A0D0A46188B5
:102E6000728883889488C201B101A40193010E94F1
:102E7000DE349B01AC01C601B5010E94BB317B0170
:102E80008C0120E030E040E050E00E949532882341
:102E9000FCF468A979A98AA99BA920E030E040E068
:102EA00050EC0E94DE34A60195010E94DE349B01A5
:102EB000AC01C401B3010E94BC310E946B35609328
:102EC0002D0270932E0280932F029093300237C10F
:102ED000E0922102F0922202009323021093240236
:102EE00080E090E0A0E0B0E080932D0290932E026D
:102EF000A0932F02B093300222C110922002F80159
:102F000085A196A1A7A1B0A580933102909332022A
:102F1000A0933302B09334020E9469245B016C01D8
:102F200060932D0270932E0280932F0290933002B3
:102F3000A60195010E94DE343B014C0120910A025A
:102F400030910B0239AF28AFD90195968D919D91A3
:102F50000D90BC91A02D8B8F9C8FAD8FBE8FF901F2
:102F60006189728983899489A40193010E94BB318C
:102F70009B01AC01C201B1010E94DE349B01AC0196
:102F80006B8D7C8D8D8D9E8D0E94BC3120E030E05C
:102F900040E05FE30E94DE347B018C0120E030E002
:102FA00040E050E00E94A33418160CF0B4C0C801F1
:102FB000B7012B8D3C8D4D8D5E8D0E9495328823FF
:102FC0000CF095C0A8ADB9AD5D966D917D918D91D8
:102FD0009C919097A40193010E94BB319B01AC018D
:102FE000C201B1010E94DE34609335027093360253
:102FF0008093370290933802A80197010E9495327E
:1030000088230CF047C0E8ADF9ADE58CF68C078D50
:1030100010A1C801B7010E946B356093290270931B
:103020002A0280932B0290932C02A8ADB9AD519641
:10303000AD90BD90CD90DC905497C601B501A8012C
:1030400097010E949532882321F4B1E0B0932002C9
:1030500076C0C801B701A60195010E94BB319B0152
:10306000AC01C201B1010E94DE349B01AC01609150
:1030700031027091320280913302909134020E94A9
:10308000BB3160933102709332028093330290938C
:10309000340255C0E0923102F092320200933302C2
:1030A00010933402E0923502F09236020093370218
:1030B00010933802E8ADF9AD21A132A143A154A18A
:1030C000CA01B9010E94BC31A80197010E94DE34F7
:1030D000A40193010E94BC310E946B3560932902C8
:1030E00070932A0280932B0290932C0228C0F2E066
:1030F000F09320028091250290912602A091270250
:10310000B09128028093290290932A02A0932B0267
:10311000B0932C0214C080E090E0A0E0B0E0809377
:10312000310290933202A0933302B0933402A09202
:103130002902B0922A02C0922B02D0922C028091D6
:103140000502B6E08B9FD0011124A354BE4FB9AF46
:10315000A8AF80910E0212968C93E0910A02F09132
:103160000B02FA8FE98F85A196A1A7A1B0A58D8B3F
:103170009E8BAF8BB88FBC01CD012091180230918E
:10318000190240911A0250911B020E94BB316CA39C
:103190007DA38EA39FA320E030E040E050E00E949A
:1031A0009532882344F480E090E0A0E0B0E08CA366
:1031B0009DA3AEA3BFA38091310290913202A09152
:1031C0003302B0913402898B9A8BAB8BBC8B80918C
:1031D000290290912A02A0912B02B0912C028D8796
:1031E0009E87AF87B88B8091350290913602A0916F
:1031F0003702B091380289879A87AB87BC87809164
:10320000210290912202A0912302B09124028D8389
:103210009E83AF83B88780912D0290912E02A0915A
:103220002F02B091300289839A83AB83BC83809153
:10323000250290912602A0912702B091280288A32E
:1032400099A3AAA3BBA3909120029F8FAD88BE88AB
:10325000CF88D88C8EE393ECAEE2B9E38CA79DA720
:10326000AEA7BFA780E090E0A0E0B0E088A799A754
:10327000AAA7BBA70F2EFEE36F2EF3EC7F2EFEE274
:103280008F2EF9E39F2EF02D9F8D992321F0913001
:1032900009F0B3C080C0C401B301A98DBA8D919665
:1032A0002D913D914D915C9194970E94DE347B016C
:1032B0008C0120E030E040E05FE30E94DE349B01BF
:1032C000AC0168A179A18AA19BA10E94BC319B019C
:1032D000AC01C401B3010E94DE349B01AC01C60104
:1032E000B5010E94BB315B016C0129893A894B8988
:1032F0005C890E94953288230CF040C069897A89E4
:103300008B899C8929853A854B855C850E949532FD
:10331000882319F4B2E0BF8F02C0E1E0EF8F6D891E
:103320007E898F89988D29893A894B895C890E9489
:10333000BB319B01AC010E94BC317B018C0168A1B7
:1033400079A18AA19BA12D853E854F8558890E9430
:10335000BC319B01AC01C801B7010E949C323B010A
:103360004C01A988BA88CB88DC888D859E85AF857D
:10337000B88988A399A3AAA3BBA3B0C068A179A167
:103380008AA19BA1A80197010E94BC3168A379A3DF
:103390008AA39BA3A3C06D857E858F859889A40190
:1033A00093010E94DE349B01AC01C601B5010E946D
:1033B000BB317B018C0129853A854B855C850E9458
:1033C000953287FD03C05701680188C0C601B50169
:1033D00029853A854B855C850E94BB312D853E85CC
:1033E0004F8558890E949C323B014C01A984BA84C4
:1033F000CB84DC8492E09F8F71C0C401B301A98D9E
:10340000BA8D91962D913D914D915C9194970E942A
:10341000DE347B018C0168A179A18AA19BA1A8015E
:1034200097010E94A3341816ACF5C801B70120E03B
:1034300030E040E05FEB0E94DE349B01AC0168A10C
:1034400079A18AA19BA10E94BC319B01AC01C4015E
:10345000B3010E94DE349B01AC01C601B5010E949C
:10346000BB311B012C012D813E814F8158850E946B
:10347000A33418167CF468A179A18AA19BA1A801A4
:1034800097010E94BB3168A379A38AA39BA3620121
:10349000510124C0C601B5012D813E814F8158855F
:1034A0000E94BB319B01AC010E94BC317B018C01AD
:1034B00068A179A18AA19BA129813A814B815C8174
:1034C0000E94BC319B01AC01C801B7010E949C3233
:1034D0003B014C01AD80BE80CF80D88468A579A522
:1034E0008AA59BA5A40193010E94BC3168A779A776
:1034F0008AA79BA72CA53DA54EA55FA50E94953246
:1035000088232CF46CA57DA58EA59FA518C0C601A7
:10351000B5012CA13DA14EA15FA10E94A3341816B4
:103520000CF56CA57DA58EA59FA52EE333EC4EE290
:1035300059E30E94BC316CA77DA78EA79FA728A541
:1035400039A54AA55BA50E94BB313B014C01C601D0
:10355000B5012D813E814F8158850E94A3341816F4
:103560000CF492CE88A199A1AAA1BBA180932502B7
:1035700090932602A0932702B09328029F8D9093E8
:103580002002C601B501209114023091150240912C
:103590001602509117020E94DE346CAB7DAB8EABED
:1035A0009FAB0E9482321B012C016091100270912E
:1035B000110280911202909113020E9482323B010B
:1035C0004C01A20191010E94BB310E940933A8ADB8
:1035D000B9AD6D937C93672BB1F58091D0048032A7
:1035E00091F580E090E0A0E0B0E080932502909318
:1035F0002602A0932702B093280280931C02909386
:103600001D02A0931E02B0931F022092100230925E
:103610001102409212025092130200910A0210917C
:103620000B02C201B10120911402309115024091A8
:103630001602509117020E949C32F80165A376A3EE
:1036400087A390A7FEC068A579A58AA59BA5209110
:103650001C0230911D0240911E0250911F020E94D7
:10366000BC317B018C01C401B3012CA93DA94EA939
:103670005FA90E94BB319B01AC01C801B7010E9448
:103680009C327B018C01C201B1012CA93DA94EA93C
:103690005FA90E94BB31A80197010E94DE346093AC
:1036A0001C0270931D0280931E0290931F02C8019A
:1036B000B70120EC31EE44E65EE40E94DE340E9465
:1036C00082320E940933AB01BC01403DF7E05F0745
:1036D000F0E06F07F0E07F0728F4A8ADB9AD1596CC
:1036E0001C9233C0403ABFE05B07B0E06B07B0E02C
:1036F0007B0728F421E0E8ADF9AD25830FC0403405
:103700003FE1530730E0630730E0730710F4E2E075
:1037100001C0E3E0A8ADB9AD1596EC93A8ADB9AD85
:1037200015962C911597022E04C07695679557959E
:1037300047950A94D2F78D919C91119702C0880FFA
:10374000991F2A95E2F78D939C934030B0E05B0778
:10375000B1E06B07B0E07B0728F4E8ADF9AD548326
:10376000438308C0EFEFFFEFA8ADB9AD1496FC930B
:10377000EE93139780910602809305028F5F8093EA
:103780000602863011F410920602C601B5012D81A1
:103790003E814F8158850E94A3341816ACF4E09105
:1037A0000A02F0910B02A5A2B6A2C7A2D0A68CA9CC
:1037B0009DA9AEA9BFA98093100290931102A09376
:1037C0001202B093130249C0C601B50120E030E0F7
:1037D00040E050E00E94A3341816CCF580E090E061
:1037E000A0E0B0E08093250290932602A0932702E8
:1037F000B093280280931C0290931D02A0931E0296
:10380000B0931F02209210023092110240921202D5
:103810005092130200910A0210910B02C201B101F1
:103820002091140230911502409116025091170216
:103830000E949C32D80195966D937D938D939C93B5
:1038400098970E94602488E08093D0040DC0109265
:103850000B0210920A020E94D622909104028091DB
:103860000602981709F0DCC9E9960FB6F894DEBF96
:103870000FBECDBFCF91DF911F910F91FF90EF90C1
:10388000DF90CF90BF90AF909F908F907F906F9080
:103890005F904F903F902F900895FF920F931F934A
:1038A000CF93DF931092070210920802C0E0D0E09D
:1038B0000C2FFC2E8091520690E00C2E02C09595A4
:1038C00087950A94E2F780FF08C0109107028C2FB9
:1038D0000E94DB1F182B109307028091530690E083
:1038E00002C095958795FA94E2F780FF08C0109181
:1038F0000802802F0E94E51F182B109308022196C2
:10390000C330D105A9F6DF91CF911F910F91FF90A0
:10391000089580916F008D7F80936F00809181006A
:10392000887F8160809381001092090290915406F3
:103930009F3F21F48091D10485FF0AC08091D0047B
:10394000843031F0892F90E00E94542891E001C02A
:1039500090E080915E0682FF02C081E09827992363
:1039600011F0289A0895289808950E94891C8BE2E6
:10397000EEE0F2E0DF011D928A95E9F783E2E1EEE5
:10398000F1E0DF011D928A95E9F71092030210928F
:10399000020210920B0210920A021092040210927C
:1039A000050281E080930602109209020E944D1CDC
:1039B0008BB1837E90910702892B8BB98BB18F716C
:1039C00090910802892B8BB908951F920F920FB620
:1039D0000F921124EF92FF920F931F932F933F9317
:1039E0004F935F936F937F938F939F93AF93BF9307
:1039F000CF93DF93EF93FF9380910902882309F01F
:103A000019C29BB18091F001807E9F71892B8BB987
:103A10008BB1837E9091EF01892B8BB98091EE0160
:103A200086BD82E085BD81E0809309027894809113
:103A3000020290910302892B09F0C0C09091040208
:103A400080910502891709F4AEC09091040286E0C6
:103A5000989FE0011124C354DE4FD0930302C0931A
:103A600002028B819C8190938900809388008881D9
:103A700099819093FE018093FD019A818091FF01CD
:103A8000891761F19093FF01E5E19E9FF0011124F8
:103A9000EC5AFE4FF0930102E09300028189928973
:103AA000A389B489B695A795979587958093E101E9
:103AB0009093E201A093E301B093E4018093E501C8
:103AC0009093E601A093E701B093E8018093E901A8
:103AD0009093EA01A093EB01B093EC01E091000216
:103AE000F091010280910802948189278093F0016E
:103AF0002D8185819681A781B085022E04C0B6955F
:103B0000A795979587950A94D2F78093F1019093A2
:103B1000F201A093F301B093F40181859285A3850E
:103B2000B485022E04C0B695A795979587950A94FB
:103B3000D2F78093F5019093F601A093F701B0932B
:103B4000F80185859685A785B08904C0B695A795A7
:103B5000979587952A95D2F78093F9019093FA016A
:103B6000A093FB01B093FC01E080F18002811381FE
:103B7000C801B70120E030E040E050E00E94A334EB
:103B80008823E4F0C801B7010E94A112E09100026D
:103B9000F091010280E090E0A0E8BFEB8083918388
:103BA000A283B3830BC00E94891C9FB7F8948091B5
:103BB000D10484608093D1049FBF3CC10E94B62A87
:103BC0001092EF012091F1013091F2014091F30147
:103BD0005091F4018091E1019091E201A091E30103
:103BE000B091E401280F391F4A1F5B1F2093E101A8
:103BF0003093E2014093E3015093E401E09100022D
:103C0000F0910102E188F28803891489E216F30633
:103C10000407150788F584E08093EF012E193F090A
:103C2000400B510B2093E1013093E2014093E301FB
:103C30005093E401848185FF0CC08091D30490915E
:103C4000D404A091D504B091D6040197A109B1097B
:103C50000BC08091D3049091D404A091D504B0916D
:103C6000D6040196A11DB11D8093D3049093D40472
:103C7000A093D504B093D6042091F5013091F601BC
:103C80004091F7015091F8018091E5019091E60192
:103C9000A091E701B091E801280F391F4A1F5B1F6F
:103CA0002093E5013093E6014093E7015093E8014A
:103CB000E188F28803891489E216F30604071507E0
:103CC00098F58091EF0188608093EF012E193F09EC
:103CD000400B510B2093E5013093E6014093E7013F
:103CE0005093E801848186FF0CC08091D7049091A5
:103CF000D804A091D904B091DA040197A109B109BF
:103D00000BC08091D7049091D804A091D904B091B0
:103D1000DA040196A11DB11D8093D7049093D804B5
:103D2000A093D904B093DA042091F9013091FA01FB
:103D30004091FB015091FC018091E9019091EA01D1
:103D4000A091EB01B091EC01280F391F4A1F5B1FB6
:103D50002093E9013093EA014093EB015093EC0189
:103D6000E188F28803891489E216F306040715072F
:103D700098F58091EF0180618093EF012E193F0942
:103D8000400B510B2093E9013093EA014093EB0182
:103D90005093EC01848187FF0CC08091DB049091EB
:103DA000DC04A091DD04B091DE040197A109B10902
:103DB0000BC08091DB049091DC04A091DD04B091F4
:103DC000DE040196A11DB11D8093DB049093DC04F9
:103DD000A093DD04B093DE048091D004843039F4E4
:103DE0008091D2049091EF0189238093EF0180911B
:103DF000FD019091FE0101979093FE018093FD01DA
:103E0000892B79F41092030210920202809104022D
:103E10008F5F8093040280910402863011F4109227
:103E20000402809107029091EF0189278093EF01AE
:103E300010920902FF91EF91DF91CF91BF91AF9165
:103E40009F918F917F916F915F914F913F912F91B2
:103E50001F910F91FF90EF900F900FBE0F901F904A
:103E60001895F999FECF92BD81BD81E08FBB80B5D9
:103E70000895F894F999FECF92BD81BD81E08FBB82
:103E800040B54627842F992787FD9095262F30E04F
:103E900082239323892B39F06F3F19F060BD84E0B2
:103EA00006C084E104C0442321F060BD84E28FBBDE
:103EB000F99A789408958F929F92AF92BF92CF9281
:103EC000DF92EF92FF920F93DF93CF9300D0CDB7A5
:103ED000DEB75C016B017A014A0100E01EC00023DD
:103EE00019F021E030E008C0202F332727FD30955E
:103EF0002227330F221F3327F60161916F01062F0E
:103F0000020F9C012F5F3F4F3A8329830E94391F84
:103F100008948108910889819A8181149104F9F6A5
:103F2000C7018A0D9B1D602F0E94391F0F900F90B3
:103F3000CF91DF910F91FF90EF90DF90CF90BF90E6
:103F4000AF909F908F900895CF93DF93EC01FB018A
:103F50009A0190E0B1E019C0F999FECFF2BDE1BD40
:103F6000BFBBA0B5992319F081E090E008C0892F6C
:103F7000992787FD90958827990F881F9927319653
:103F80009A2F980FA993215030402115310521F720
:103F9000460F571FF999FECF52BD41BD81E08FBB3F
:103FA00080B520E030E0981711F421E030E0C9013D
:103FB000DF91CF910895882311F484E00895813032
:103FC00011F080E1089588E00895882311F480E2DB
:103FD0000895813011F080E8089580E4089580E02C
:103FE00090E00E94311F893011F020E00CC081E286
:103FF00096E061E070E04DE450E00E94A41F20E0F4
:10400000892B09F021E0822F089580E093E060E0A1
:104010000E94391F81E593E060E00E94391F0895F6
:1040200080E090E069E00E94391F81E090E061E269
:1040300076E04DE450E00E945B1F0895CF92DF923E
:10404000EF92FF920F931F93082F6A017B01CB0120
:10405000BA0120E030E040E050E00E949532882331
:1040600014F484E017C1043608F459C0045690E0F3
:10407000033008F04BC0913089F0913030F092302D
:10408000D1F0933009F001C131C0E02FF0E0EE0F24
:10409000FF1FEE0FFF1FEF5DF94F08C0E02FF0E0AC
:1040A000EE0FFF1FEE0FFF1FE35DF94FC082D182BD
:1040B000E282F382EAC010E0000F111F000F111F0F
:1040C000075C194FC701B60120E030E040E752E439
:1040D0000E94DE3420E030E040E752E40E94DE340B
:1040E000F8016083718382839383CFC0E02FF0E077
:1040F000EE0FFF1FEE0FFF1FEB5BF94FD701C6015D
:10410000B05880839183A283B383BFC00A3008F480
:10411000C0C09F5F943009F4BCC00A50A9CFC7014A
:10412000B6010E94B8350E940933E02FF0E0EC316F
:10413000F10508F0AEC0EC5CFF4FEE0FFF1F0590DD
:10414000F491E02D0994633010F486E0A3C06093ED
:1041500051069BC06093540698C06093520602C0FB
:10416000609353060E944D1C90C0662321F08091FD
:104170005E06846009C080915E068B7F05C0662361
:1041800031F080915E06806480935E067EC08091EF
:104190005E068F7BF9CF662321F080915E068068F2
:1041A000F3CF80915E068F77EFCF60935506C09274
:1041B0005606D0925706E0925806F092590665C00E
:1041C000C0925A06D0925B06E0925C06F0925D06C1
:1041D0005CC0662321F080915E068160D5CF80911E
:1041E0005E068E7FD1CF662321F080915E068260CD
:1041F000CBCF80915E068D7FC7CF662341F0809143
:104200005E0684FD02C08AE045C08062BDCF809119
:104210005E068F7DB9CF662321F080915E068860AF
:1042200003C080915E06877F80935E060E94872888
:104230002CC0662321F080915E068061A5CF80911D
:104240005E068F7CA1CF60935F061FC0C0926006A0
:10425000D0926106E0926206F092630616C0C092A8
:104260006406D0926506E0926606F09267060DC07D
:10427000609368061092690608C0C0926A06D092E0
:104280006B06E0926C06F0926D060E94102080E0B2
:1042900001C083E01F910F91FF90EF90DF90CF90CE
:1042A00008958AE08093510689E180935406109224
:1042B000520686E08093530683E0809355068AE099
:1042C00097EDA3EABCE38093560690935706A0931C
:1042D0005806B09359068FE692E1A3E0BBE38093C2
:1042E0005A0690935B06A0935C06B0935D0610920D
:1042F0005F0680E090E0A8ECB1E4809360069093C4
:104300006106A0936206B093630620E030E04AEFB6
:1043100053E42093640630936506409366065093F9
:1043200067068AEF90E0909369068093680680E0C4
:1043300090E0A0E8BFE380936A0690936B06A09399
:104340006C06B0936D0682E080935E0680E090E09C
:10435000AAE7B3E48093210690932206A093230654
:10436000B09324068093250690932606A0932706F3
:10437000B09328068093290690932A06A0932B06D3
:10438000B0932C0620932D0630932E0640932F06D3
:104390005093300620933106309332064093330613
:1043A00050933406209335063093360640933706F3
:1043B0005093380680E090EAACE0B7E48093390689
:1043C00090933A06A0933B06B0933C0680933D063B
:1043D00090933E06A0933F06B0934006809341061B
:1043E00090934206A0934306B093440680E090E089
:1043F000A8E4B3EC8093450690934606A093470645
:10440000B09348068093490690934A06A0934B06C2
:10441000B0934C0680934D0690934E06A0934F06A2
:10442000B09350060E94102008959DE0899FC0011E
:10443000112480509E4F4CE050E00E945B1F089575
:104440000F931F93CF93DF93162F072F9DE0899F24
:10445000E0011124C050DE4F862F972FBE014CE0A3
:1044600050E00E94A41F892B11F081E00FC0E12FC2
:10447000F02F8CE0DF011D928A95E9F7CE01612FC4
:10448000702F4CE050E00E945B1F80E0DF91CF91E5
:104490001F910F910895EF92FF921F93DF93CF9397
:1044A000CDB7DEB72C970FB6F894DEBF0FBECDBFE9
:1044B0000E94EF1F882371F487E00E943A2B0E942C
:1044C00051210E9405208EEA93E060E00E94391F8E
:1044D0000E94372E10E07E010894E11CF11C812F10
:1044E000B7010E942022882319F487E00E943A2B0A
:1044F0001F5F1830A1F72C960FB6F894DEBF0FBEE1
:10450000CDBFCF91DF911F91FF90EF900895BC0137
:104510008EEA93E040E550E00E945B1F0895CF9340
:10452000DF93EC016EEA73E040E550E00E94A41FC7
:10453000892B11F081E009C018828EEA93E0BE0158
:1045400040E550E00E945B1F80E0DF91CF9108952D
:1045500091E5899FC001112480509D4F40E550E0B6
:104560000E945B1F08950F931F93CF93DF938B01DE
:1045700091E5899FE0011124C050DD4FCB01BE01C0
:1045800040E550E00E94A41F892B11F081E009C092
:10459000F8011082CE01B80140E550E00E945B1F97
:1045A00080E0DF91CF911F910F9108952091AF048A
:1045B0008091B004821769F0922F9F5F9E3009F4BA
:1045C00090E08091B204281711F49093B204909374
:1045D000AF0408959091AF048091B004891719F445
:1045E00020E030E006C08DE2989F90011124275C06
:1045F0003D4FC901089520E09091AF048091B1042E
:10460000981709F421E0822F08958091D3049091A6
:10461000D404A091D504B091D6048093B3049093B0
:10462000B404A093B504B093B6048091D7049091DC
:10463000D804A091D904B091DA048093B704909380
:10464000B804A093B904B093BA048091DB049091AC
:10465000DC04A091DD04B091DE048093BB04909350
:10466000BC04A093BD04B093BE0408958091B0042F
:104670009091AF04891710F0891B0895825F891B00
:1046800008954F925F926F927F928F929F92AF9216
:10469000BF92CF92DF92EF92FF920F931F93CF932F
:1046A000DF938091B004882309F48EE0782E7A9409
:1046B0006090B204761409F4F2C08DE2789E400155
:1046C000112489E392E0880E991EF401A588B6882A
:1046D000C788D08C21A132A143A154A1CA01B9013C
:1046E0000E94BC31F40125A136A147A150A50E942A
:1046F000DE347B018C01B501C601A80197010E943F
:10470000953287FD04C0D801C70157016D01C5016D
:10471000D601F401818B928BA38BB48B772011F49B
:104720003EE0732E7A94761409F04EC08091AF0467
:10473000681609F050C00E94D3154DC0769CE00168
:104740001124C75CDD4F772011F42EE0722E7A948D
:104750008091AF04781611F40E94D315AD88BE88FD
:10476000CF88D88C69897A898B899C89A601950123
:104770000E949532882331F129A13AA14BA15CA175
:10478000CA01B9010E94BC312DA13EA14FA158A57B
:104790000E94DE34F40121893289438954890E94C0
:1047A000BC317B018C01A60195010E9495328823C2
:1047B0002CF4E98AFA8A0B8B1C8B04C0A98ABA8A6A
:1047C000CB8ADC8A4E0102C09DE2692E8091B20440
:1047D000781609F0B3CFA090B204BA2CB394FEE0DF
:1047E000BF1609F4BB248DE2A89E80011124075C4A
:1047F0001D4F5090B0048DE2482E4CC0B49CE00197
:104800001124C75CDD4FF801C188D288E388F488A1
:1048100069887A888B889C88C701B601A4019301B6
:104820000E94953288231CF5F80121A132A143A1F1
:1048300054A1CA01B9010E94BC31F80125A136A1D9
:1048400047A150A50E94DE349B01AC01C701B6010F
:104850000E94BC317B018C01A40193010E9495321E
:1048600088232CF4E98AFA8A0B8B1C8BAB2C698980
:104870007A898B899C892D893E894F89588D0E9420
:104880009532882309F4AB2CB394FEE0BF1609F4EB
:10489000BB248E01B51409F0B1CFA092B204DF9110
:1048A000CF911F910F91FF90EF90DF90CF90BF902D
:1048B000AF909F908F907F906F905F904F900895F2
:1048C0000E94D3158091AF048093B2040E944123CB
:1048D00008952091AF042F5F2E3009F420E08091DD
:1048E000B004281729F460E070E080E090E012C086
:1048F00030E08DE290E0289FF001299FF00D389F75
:10490000F00D1124E75CFD4F6189728983899489D8
:104910000E946B3508952F923F924F925F926F9253
:104920007F928F929F92AF92BF92CF92DF92EF923F
:10493000FF920F931F93DF93CF93CDB7DEB7E0972E
:104940000FB6F894DEBF0FBECDBF98A78FA349A7BF
:104950005AA76BA77CA7222E9091B0048DE2989F56
:104960004001112429E332E0820E931ED4011D96EA
:104970001D921D921D921C92509780E090E0A0E045
:10498000B0E0F40185A396A3A7A3B0A7108289E99C
:1049900096E7A6E9BEE781A392A3A3A3B4A3D4019B
:1049A0009996ED92FD920D931C939C9724013324CC
:1049B00066247724F301EF5DF94FA080B180C280B7
:1049C000D380EFA1F8A5E60DF71DC601B501208142
:1049D0003181428153810E94DE340E94AE349B01BA
:1049E000AC01E1E0F0E0EC0FFD1FE60DF71D2083C8
:1049F000318342835383F301ED54FB4F80819181D6
:104A0000A281B38179018A01E81AF90A0A0B1B0B0A
:104A1000C801B70117FF07C0EE24FF248701E61A7B
:104A2000F70A080B190BD2011196ED92FD920D9326
:104A30001C931497F4012585368547855089E21625
:104A4000F3060407150710F479018A01D4011D96B5
:104A5000ED92FD920D931C9350970E943733A6015F
:104A600095010E949C325B016C01EDE0F0E0EC0FDF
:104A7000FD1FE60DF71D608371838283938320E021
:104A800030E040E050E00E949532882344F4F40185
:104A90001081832D0E94E51F182BD4011C93F40173
:104AA000E5A0F6A007A110A5C601B501A6019501D4
:104AB0000E94DE349B01AC01C801B7010E94BC31E9
:104AC0007B018C01CB01D801F40185A396A3A7A398
:104AD000B0A7339424E030E0620E731E420E531EE2
:104AE00033E0331609F066CFB701C8010E946B3579
:104AF0007B018C01D40195966D937D938D939C934E
:104B000098971D968D919D910D90BC91A02D009729
:104B1000A105B10509F4E6C169A57AA58BA59CA5F7
:104B200020E030E040E050E00E94953288232CF4F1
:104B300089E996E7A6E9BEE71EC0222061F0C80118
:104B4000B70129A53AA54BA55CA50E949C3269A78F
:104B50007AA78BA79CA769A57AA58BA59CA520E021
:104B600030E040E85FE30E949532882344F480E01F
:104B700090E0A0E8BFE389A79AA7ABA7BCA760E035
:104B800070E080E89FE3A80197010E949C326BA32C
:104B90007CA38DA39EA3DE011D96BE8FAD8FEFEB90
:104BA000F4E0FC8FEB8F0DE216E01A8F098F80E0A6
:104BB00090E0A0E0B0E08F8F98A3A9A3BAA3DE0194
:104BC0005996B8ABAFA7ED8DFE8DE080F1800281E4
:104BD0001381C801B70120E030E040E050E00E94BE
:104BE0009532882309F47CC0C801B7012BA13CA1F0
:104BF0004DA15EA10E94DE342B013C01AD8DBE8D26
:104C00006D937D938D939C93139760E070E080E8A3
:104C10009FE3A30192010E949C325B016C01E89426
:104C2000D7F8C601B501E98DFA8D20813181428125
:104C300053810E94DE347B018C0169A57AA58BA586
:104C40009CA5A80197010E94953287FD04C0E9A6A2
:104C5000FAA60BA71CA7D4019196BC91BDA7F4019D
:104C6000F2A1FEA7D40193962C90939794963C9032
:104C7000C601B501E98DFA8D2485358546855785B0
:104C80000E94DE347B018C016DA57EA5C101A801C7
:104C900097010E94953287FD05C0D801C701EDA696
:104CA0009EA71D018DA59EA5D101F40181A392A30C
:104CB000A3A3B4A3C301B201AB8DBC8D2D913D91D3
:104CC0004D915C910E94DE349B01AC016F8D78A107
:104CD00089A19AA10E94BB316F8F78A389A39AA35F
:104CE000ED8DFE8D3496FE8FED8F0B8D1C8D0C5F40
:104CF0001F4F1C8F0B8F298D3A8D2C5F3F4F3A8FA2
:104D0000298F8FA598A9E817F90709F05CCF909132
:104D1000B0048091AF04981771F480E090E0A0E0B7
:104D2000B0E0F401818B928BA38BB48B818F928F37
:104D3000A38FB48F52C060E070E080E89FE32F8DB6
:104D400038A149A15AA10E94BB3120E030E040E0E7
:104D50005FE30E94DE340E946B355B016C01D4017D
:104D600091966D917D918D919C919497209156068D
:104D70003091570640915806509159060E94DE34F2
:104D8000A60195010E94DE347B018C0160E070E099
:104D900080E89FE3A60195010E94BB319B01AC0115
:104DA000C801B7010E949C327B018C0120E030E0F9
:104DB00040E050E00E949532882354F40F2EF0E03A
:104DC000EF2EF0E0FF2EF0E00F2FF0E01F2FF02D80
:104DD000F401E18EF28E038F148F69A57AA58BA55D
:104DE0009CA59B01AC010E94DE347B018C01D401A7
:104DF0005D966D937D938D939C93909759965C905F
:104E000059975A964C905A975B963C905B975C9654
:104E10002C90D090CB04C090CC04B090CD04A09046
:104E2000CE042D2D3C2D4B2D5A2D0E94953287FD01
:104E300004C06D2C7C2CF50105C0D801C7013701D9
:104E4000FA2FEB2F652D742D832D922D93014F2F6B
:104E50005E2F0E94953288232CF4852D942DA32D4E
:104E6000B22D0EC0C801B7012D2D3C2D4B2D5A2D52
:104E70000E94953287FD06C08D2D9C2DAB2DBA2D3D
:104E80007C018D01F401E58AF68A078B108FAFEB68
:104E9000B4E0FE013D968CE001900D928150E1F767
:104EA000F401858D968DA78DB0A18093CB0490934E
:104EB000CC04A093CD04B093CE04A3EBB4E0FE01E8
:104EC00031968CE001900D928150E1F78091B10410
:104ED0008093B0048F5F8E3009F480E08093B1043A
:104EE0000E944123E0960FB6F894DEBF0FBECDBFFF
:104EF000CF91DF911F910F91FF90EF90DF90CF90B6
:104F0000BF90AF909F908F907F906F905F904F90E9
:104F10003F902F9008958CE1E3EBF4E0DF011D92C8
:104F20008A95E9F71092AF041092B00481E0809363
:104F3000B1041092B20408956F927F928F929F9263
:104F4000AF92BF92CF92DF92EF92FF920F931F9397
:104F5000CF93DF934C013B015A01FB018081F401A7
:104F6000E80FF11DEF0189918D3229F4818121969D
:104F7000CC24C39405C08B3211F481812196CC24BA
:104F800020E030E040E050E0DD24E0E070E0682F19
:104F900060536A30F8F4EF5FE930C0F47111DA94CD
:104FA000DA01C901F2E0880F991FAA1FBB1FFA9509
:104FB000D1F7280F391F4A1F5B1F220F331F441FD1
:104FC000551F260F311D411D511D09C0772339F48E
:104FD000D39405C06E3F29F4772319F471E08991C9
:104FE000D6CFEE2311F480E050C0CA01B9010E946F
:104FF00035337B018C0120E030E040E050E00E943E
:105000009532882369F42BC0C801B7012AE037ED37
:1050100043E25CE30E94DE347B018C01F2E0DF0EB0
:105020008FEFD8168CF3D81659F4C801B7012DECC0
:105030003CEC4CEC5DE30E94DE347B018C010FC044
:10504000DD2069F0C801B70120E030E040E251E422
:105050000E94DE347B018C01DA941D149CF3CC2079
:1050600049F0D801C701B058F50180839183A2832C
:10507000B38305C0F501E082F18202831383882D9A
:1050800080958C0FF301808381E0DF91CF911F9198
:105090000F91FF90EF90DF90CF90BF90AF909F90D7
:1050A0008F907F906F90089520EA3FE004C0F9014F
:1050B0003197F1F701970097D1F70895AF92BF921A
:1050C000CF92DF92EF92FF920F931F937B018C019F
:1050D00059016A01A80197010E94DE347B018C010D
:1050E000C601B501A60195010E94DE349B01AC0109
:1050F000C801B7010E94BC310E946B351F910F910E
:10510000FF90EF90DF90CF90BF90AF90089584B163
:10511000897E84B980915E06982F86FF03C085B191
:10512000897E02C085B1866185B993FF09C08091EF
:105130006B00866180936B0080916800816008C07D
:1051400080916B00897E80936B00809168008E7FD8
:10515000809368000895EBE6F0E08081897E80838B
:10516000E8E6F0E080818E7F808308950895CF92F5
:10517000DF92EF92FF920F931F93CF93DF936C0117
:10518000C0E0D0E0F601EC0FFD1FE080F18002816D
:105190001381C801B70120E030E040E050E00E94F8
:1051A000A33418166CF0FE01EF5DF94FC801B7018A
:1051B00024A135A146A157A10E949532882304F568
:1051C0008091D004803179F49FB7F8948091D10414
:1051D00088608093D1049FBF0E943A148091CF04CD
:1051E0008823D1F312C00E942C049FB7F8948091B9
:1051F000D10480668093D1049FBF0E943A1405C0F9
:105200002496CC30D10509F0BDCFDF91CF911F910D
:105210000F91FF90EF90DF90CF9008951F920F9223
:105220000FB60F9211242F933F934F935F936F9379
:105230007F938F939F93AF93BF93EF93FF9380914F
:10524000D004813071F08091D10485FD0AC00E94A4
:105250002C049FB7F8948091D10480668093D10488
:105260009FBFFF91EF91BF91AF919F918F917F91E0
:105270006F915F914F913F912F910F900FBE0F90C3
:105280001F9018958F929F92AF92BF92CF92DF920C
:10529000EF92FF920F931F93DF93CF93CDB7DEB7BB
:1052A0002A970FB6F894DEBF0FBECDBF7B018C01ED
:1052B000A42E20E030E040E050E00E9495328823A8
:1052C0003CF48DE20E94721317FB109517F91095AC
:1052D000DA2C0CC0C801B70120E030E048EC52E401
:1052E0000E94DE347B018C018EEFD80EE1E0ED15DB
:1052F00088F3A0FE0AC0C801B70120E030E040E218
:1053000051E40E94DE347B018C01C801B70120E02A
:1053100030E040E05FE30E94BC310E9404336B0147
:105320007C019E012F5F3F4FF901EA0DF11D8EE2D6
:105330008083BB2449011EC0BA1409F4B3948401CC
:105340000B0D111DC701B6012AE030E040E050E02E
:105350000E94E335605DF8016083B394C701B60134
:105360002AE030E040E050E00E94E335C901DA0174
:105370006C017D01C114D104E104F104E9F606C019
:10538000FC01EB0DF11D2083B39403C0CE01019607
:1053900020E3BA14A8F3BA1489F48B2D8F5FFE01B1
:1053A000E80FF11D90E39183B82EB39407C0FE017E
:1053B000EB0DF11D80810E947213BA94BB20B9F7E6
:1053C0002A960FB6F894DEBF0FBECDBFCF91DF9106
:1053D0001F910F91FF90EF90DF90CF90BF90AF9013
:1053E0009F908F90089543E00E94422908959B0169
:1053F000AC0180915E0680FF0AC0CA01B9012BE8AA
:1054000032E441E25DE30E94DE3441E003C0CA01C0
:10541000B90140E00E94422908959B01AC018091AE
:105420005E0680FF0AC0CA01B9012BE832E441E2FE
:105430005DE30E94DE3444E003C0CA01B90143E0E9
:105440000E94422908951F93DF93CF9300D00F92BB
:10545000CDB7DEB7282F882321F480E30E94721392
:105460001EC010E0AE014F5F5F4FFA01E10FF11D6A
:10547000822F6AE00E94D735905D90831F5F822F54
:105480000E94D735282F882381F707C0FE01E10F3E
:10549000F11D80810E94721311501123B9F70F90F2
:1054A0000F900F90CF91DF911F9108950F931F934D
:1054B000DF93CF93CDB7DEB728970FB6F894DEBF52
:1054C0000FBECDBF982FFE0131969E01275F3F4F43
:1054D000892F817081939695E217F307C9F78E01A2
:1054E000085F1F4FF8018081805D0E947213015098
:1054F00010400C171D07B1F728960FB6F894DEBFC1
:105500000FBECDBFCF91DF911F910F910895CF9323
:10551000DF93EC0102C00E947213FE012196849178
:105520008823C9F7DF91CF910895CF93DF93EC01E2
:1055300003C021960E94721388818823D1F7DF91DE
:10554000CF9108953D9880915E0687FF04C04598ED
:1055500010926E060895459A80E280936E06089533
:1055600086B1807290916E06892708958091E0043B
:105570008130B1F486B1807290916E06891781F006
:105580001092E004E1EEF4E0DF011E978CE00D9054
:1055900001928150E1F78091D10488608093D10419
:1055A000089585E994E00E94872A089589ED95E0A1
:1055B0000E94872A08951F93182F83E496E00E9483
:1055C000872A133091F0143028F4113041F0123052
:1055D000B1F408C0143061F0153089F40CC081E3D7
:1055E00096E00BC08DE196E008C08BE096E005C028
:1055F00083E096E002C08AEF95E00E94872A86EF5A
:1056000095E00E94872A1F910895FF920F931F93A0
:10561000CF93DF9380EF91E00E94872A01EE14E0A0
:10562000C1E2D6E0FF24F80160817181828193811B
:105630000E943733288139814A815B810E949C32E4
:105640000E940D2AF2E0FF1621F08EEE91E00E94FA
:10565000872AF3940C5F1F4F249683E0F81619F7FE
:105660008AEE91E00E94872ADF91CF911F910F91DE
:10567000FF9008951F93182F882319F485E997E068
:105680005CC08DE897E00E94872A1730A9F1183096
:1056900078F4133029F1143030F41130C9F012309D
:1056A00009F042C018C0153009F1163010F51BC0C2
:1056B0001B3071F11C3028F4193021F11A3028F513
:1056C0001EC0153141F1163161F1143169F526C062
:1056D00085E797E002C083E697E00E94872A2BC007
:1056E00081E597E0FACF87E497E0F7CF86E397E08C
:1056F000F4CF87E297E0F1CF86E097E0EECF8DEF31
:1057000096E0EBCF82EF96E0E8CF8FED96E0E5CF25
:1057100081ED96E0E2CF8BEB96E0DFCF87EA96E073
:10572000DCCF83E996E0D9CF81E896E00E94872A12
:10573000812F0E94232A8EE796E00E94872A1F91DC
:105740000895DF92EF92FF920F931F93DF93CF9311
:10575000CDB7DEB768970FB6F894DEBF0FBECDBFEA
:10576000DE011196E3EDF4E08CE001900D928150A2
:10577000E1F78091D0048430E1F0853038F4813055
:10578000D9F0813050F08230F1F419C0803159F0F5
:10579000803261F08830B9F403C082E391E011C037
:1057A0008BE291E00EC086E291E00BC080E291E0D6
:1057B00008C08AE191E005C083E191E002C08CE07D
:1057C00091E00E94872A80915506082F10E0C801B9
:1057D00083709070892BE1F169817A818B819C8142
:1057E0000E943733209121063091220640912306F2
:1057F000509124060E949C326D877E878F87988BFC
:105800006D817E818F8198850E9437332091250696
:105810003091260640912706509128060E949C321E
:10582000698B7A8B8B8B9C8B69857A858B859C8524
:105830000E9437332091290630912A0640912B0689
:1058400050912C060E949C326D8B7E8B8F8B988F93
:1058500000FF1EC085E091E00E94872A6D857E854D
:105860008F8598890E940D2A83E091E00E94872A03
:1058700069897A898B899C890E940D2A83E091E04D
:105880000E94872A6D897E898F89988D0E940D2AB2
:105890008091550681FF50C08CEF90E00E94872ACE
:1058A0008E01035F1F4F8CE0E82E85E0F82EDD248B
:1058B000F7016081718182819381248535854685D8
:1058C00057850E94BC319B01AC01F8016081718158
:1058D000828193810E94BB31F8016083718382834E
:1058E0009383F2E0DF1679F42091240530912505A9
:1058F00040912605509127050E94BB31F801608335
:10590000718382839383F8016081718182819381A5
:105910000E940D2AF2E0DF1621F08AEF90E00E944B
:10592000872AD3940C5F1F4F84E090E0E80EF91EA5
:1059300093E0D91609F0BCCF8091550682FF08C0CC
:1059400084EF90E00E94872A0E9436230E94232A37
:105950008091550683FF08C08FEE90E00E94872A51
:105960000E9451130E94232A8BEE90E00E94872A06
:1059700068960FB6F894DEBF0FBECDBFCF91DF9112
:105980001F910F91FF90EF90DF9008950F931F9359
:105990008C018CE391E00E94872AC8010E94952A1D
:1059A00088E391E00E94872A1F910F910895FF924A
:1059B0000F931F93F82E8B0181E591E00E94872AB7
:1059C0008F2D0E94232A8FE491E00E94872AC8012C
:1059D0000E94952A8CE491E00E94872A1F910F91E2
:1059E000FF9008958091ED04823091F0833028F487
:1059F000882341F08130B1F408C0833061F08530F4
:105A000089F40CC08FEB91E00BC08BEB91E008C0E8
:105A100087EB91E005C083EB91E002C08EEA91E054
:105A20000E94872A8BEA91E00E94872A8091F304E2
:105A30008A5C0E94232A8091F104813041F08130F8
:105A400018F0823059F406C086EA91E005C081EA78
:105A500091E002C08CE991E00E94872A8091EF04D6
:105A6000882319F487E991E002C082E991E00E945D
:105A7000872A8091F004882319F48DE891E002C010
:105A800088E891E00E94872A8091EE04813019F421
:105A900083E891E002C08EE791E00E94872A80911E
:105AA000F404813041F0813018F0823059F406C09E
:105AB0008AE791E005C086E791E002C082E791E0C5
:105AC0000E94872A8091F604813029F0813048F0C5
:105AD000823059F403C08EE691E005C08AE691E079
